:020000040800F2
:1000000000000120252400084D200008532000088E
:10001000592000085F20000865200008000000004B
:100020000000000000000000000000006B2000083D
:10003000792000080000000087200008E520000863
:10004000752400087524000875240008752400082C
:10005000752400087524000875240008752400081C
:10006000752400087524000875240008752400080C
:1000700075240008752400087524000875240008FC
:1000800075240008752400081117000800000000FE
:1000900000000000000000000000000075240008BF
:1000A000D91C0008F5140008FD1C00087524000880
:1000B000491C00086D1C0008911C000875240008EC
:1000C00075240008752400087524000875240008AC
:1000D00075240008BD2300087524000800000000F6
:1000E000752400087524000875240008000000002D
:1000F000000000000000000000000000752400085F
:100100000000000075240008B51C000875240008D4
:1001100000000000000000000000000000000000DF
:10012000752400087524000875240008752400084B
:10013000752400080000000000000000000000001E
:10014000000000000000000000000000752400080E
:10015000752400087524000875240008F1230008A0
:10016000752400087524000800000000000000004D
:10017000000000000000000000000000000000007F
:1001800000000000752400080000000000000000CE
:0401900075240008CA
:1001980010B5054C237833B9044B13B10448AFF3B9
:1001A80000800123237010BD000000200000000023
:1001B800C024000808B5034B1BB103490348AFF33B
:1001C800008008BD0000000004000020C0240008D2
:1001D80070B54FF0FF0C4CF4E06C1CEA11541DBFD5
:1001E8001CEA135594EA0C0F95EA0C0F00F0DEF8A0
:1001F8002C4481EA030621EA4C5123EA4C5350EA85
:10020800013518BF52EA033541F4801143F48013D5
:1002180038D0A0FB02CE4FF00005E1FB02E506F066
:100228000042E0FB03E54FF00006E1FB03569CF0BB
:10023800000F18BF4EF0010EA4F1FF04B6F5007FC1
:1002480064F5407404D25FEA4E0E6D4146EB060633
:1002580042EAC62141EA55514FEAC52040EA5E50BC
:100268004FEACE2EB4F1FD0C88BFBCF5E06F1ED866
:10027800BEF1004F08BF5FEA500E50F1000041EB9D
:10028800045170BD06F0004646EA010140EA02004A
:1002980081EA0301B4EB5C04C2BFD4EB0C0541EA6C
:1002A800045170BD41F480114FF0000E013C00F381
:1002B800AB8014F1360FDEBF002001F0004170BDA5
:1002C800C4F10004203C35DA0C341BDC04F11404BE
:1002D800C4F1200500FA05F320FA04F001FA05F24A
:1002E80040EA020001F0004221F0004110EBD37017
:1002F80021FA04F642EB06015EEA430E08BF20EA43
:10030800D37070BDC4F10C04C4F1200500FA04F3E5
:1003180020FA05F001FA04F240EA020001F0004177
:1003280010EBD37041F100015EEA430E08BF20EAEA
:10033800D37070BDC4F1200500FA05F24EEA020E32
:1003480020FA04F301FA05F243EA020321FA04F061
:1003580001F0004121FA04F220EA020000EBD37018
:100368005EEA430E08BF20EAD37070BD94F0000F18
:100378000FD101F00046400041EB010111F4801F4C
:1003880008BF013CF7D041EA060195F0000F18BFFD
:10039800704703F00046520043EB030313F4801F39
:1003A80008BF013DF7D043EA0603704794EA0C0FF3
:1003B8000CEA135518BF95EA0C0F0CD050EA410609
:1003C80018BF52EA4306D1D181EA030101F0004186
:1003D8004FF0000070BD50EA410606BF10461946AE
:1003E80052EA430619D094EA0C0F02D150EA0136BA
:1003F80013D195EA0C0F05D152EA03361CBF1046FB
:1004080019460AD181EA030101F0004141F0FE4199
:1004180041F470014FF0000070BD41F0FE4141F41D
:10042800780170BD81F0004102E000BF83F0004315
:1004380030B54FEA41044FEA430594EA050F08BF77
:1004480090EA020F1FBF54EA000C55EA020C7FEA3B
:10045800645C7FEA655C00F0E2804FEA5454D4EBB8
:100468005555B8BF6D420CDD2C4480EA020281EA82
:10047800030382EA000083EA010180EA020281EABA
:100488000303362D88BF30BD11F0004F4FEA01310C
:100498004FF4801C4CEA113102D0404261EB41011B
:1004A80013F0004F4FEA03334CEA133302D05242A1
:1004B80063EB430394EA050F00F0A780A4F101045D
:1004C800D5F1200E0DDB02FA0EFC22FA05F2801897
:1004D80041F1000103FA0EF2801843FA05F359417D
:1004E8000EE0A5F120050EF1200E012A03FA0EFCFC
:1004F80028BF4CF0020C43FA05F3C01851EBE37126
:1005080001F0004507D54FF0000EDCF1000C7EEB42
:1005180000006EEB0101B1F5801F1BD3B1F5001F80
:100528000CD349085FEA30004FEA3C0C04F101049F
:100538004FEA445212F5800F80F09A80BCF1004FC8
:1005480008BF5FEA500C50F1000041EB045141EA4A
:10055800050130BD5FEA4C0C404141EB0101013C13
:1005680028BFB1F5801FE9D291F0000F04BF014602
:100578000020B1FA81F308BF2033A3F10B03B3F1D4
:1005880020020CDA0C3208DD02F1140CC2F10C0264
:1005980001FA0CF021FA02F10CE002F11402D8BFC2
:1005A800C2F1200C01FA02F120FA0CFCDCBF41EA8E
:1005B8000C019040E41AA2BF01EB0451294330BD5D
:1005C8006FEA04041F3C1CDA0C340EDC04F114043A
:1005D800C4F1200220FA04F001FA02F340EA030011
:1005E80021FA04F345EA030130BDC4F10C04C4F157
:1005F800200220FA02F001FA04F340EA0300294637
:1006080030BD21FA04F0294630BD94F0000F83F480
:10061800801306BF81F480110134013D4EE77FEA63
:10062800645C18BF7FEA655C29D094EA050F08BFAF
:1006380090EA020F05D054EA000C04BF1946104690
:1006480030BD91EA030F1EBF0021002030BD5FEAD4
:10065800545C05D14000494128BF41F0004130BDFC
:1006680014F580043CBF01F5801130BD01F0004550
:1006780045F0FE4141F470014FF0000030BD7FEAC3
:10068800645C1ABF194610467FEA655C1CBF0B46BE
:10069800024650EA013406BF52EA033591EA030FD5
:1006A80041F4002130BD00BF90F0000F04BF0021CD
:1006B800704730B54FF4806404F132044FF0000500
:1006C8004FF0000150E700BF90F0000F04BF002179
:1006D800704730B54FF4806404F1320410F00045DF
:1006E80048BF40424FF000013EE700BF42004FEADA
:1006F800E2014FEA31014FEA02701FBF12F07F4357
:1007080093F07F4F81F06051704732F07F4208BF0D
:10071800704793F07F4F04BF41F40021704730B514
:100728004FF4607401F0004521F000411CE700BF60
:1007380050EA010208BF704730B54FF000050AE0E3
:1007480050EA010208BF704730B511F0004502D5E4
:10075800404261EB41014FF4806404F132045FEAE6
:10076800915C3FF4D8AE4FF003025FEADC0C18BF8F
:1007780003325FEADC0C18BF033202EBDC02C2F181
:10078800200300FA03FC20FA02F001FA03FE40EA13
:100798000E0021FA02F11444BDE600BF4FEA4102FF
:1007A800B2F1E04324BFB3F5001CDCF1FE5C0DD9C7
:1007B80001F0004C4FEAC0024CEA5070B2F1004F11
:1007C80040EB830008BF20F00100704711F0804F14
:1007D80021D113F13872BCBF01F00040704741F4D9
:1007E80080114FEA5252C2F11802C2F1200C10FADD
:1007F8000CF320FA02F018BF40F001004FEAC123C1
:100808004FEAD32303FA0CFC40EA0C0023FA02F364
:100818004FEA4303CCE77FEA625307D150EA01333A
:100828001EBF4FF0FE4040F44000704701F000400A
:1008380040F0FE4040F40000704700BF7BB972B939
:100848000029BEBF00204FF0004106E008BF002885
:100858001CBF6FF000414FF0FF3000F0BFB9ADF1A1
:10086800080C6DE904CE002909DB002B1ADB00F027
:100878004DF8DDF804E0DDE9022304B0704740429A
:1008880061EB4101002B1BDB00F040F8DDF804E0D0
:10089800DDE9022304B0404261EB4101524263EBBF
:1008A80043037047524263EB430300F02FF8DDF82F
:1008B80004E0DDE9022304B0404261EB41017047E6
:1008C800524263EB430300F021F8DDF804E0DDE970
:1008D800022304B0524263EB4303704753B94AB949
:1008E800002908BF00281CBF4FF0FF314FF0FF3030
:1008F80000F074B9ADF1080C6DE904CE00F006F80B
:10090800DDF804E0DDE9022304B070472DE9F04783
:10091800089D04468E46002B4DD18A42944669D9DB
:10092800B2FA82F252B101FA02F3C2F1200120FABE
:1009380001F10CFA02FC41EA030E94404FEA1C480C
:10094800210CBEFBF8F61FFA8CF708FB16E341EA08
:10095800034306FB07F199420AD91CEB030306F18E
:10096800FF3080F01F81994240F21C81023E6344AF
:100978005B1AA4B2B3FBF8F008FB103344EA034453
:1009880000FB07F7A7420AD91CEB040400F1FF3368
:1009980080F00A81A74240F207816444023840EAA5
:1009A8000640E41B00261DB1D4400023C5E90043DE
:1009B8003146BDE8F0878B4209D9002D00F0EF8061
:1009C8000026C5E9000130463146BDE8F087B3FA94
:1009D80083F6002E4AD18B4202D3824200F2F9807C
:1009E800841A61EB030301209E46002DE0D0C5E97F
:1009F800004EDDE702B9FFDEB2FA82F2002A40F0CB
:100A08009280A1EB0C014FEA1C471FFA8CFE0126CD
:100A1800200CB1FBF7F307FB131140EA01410EFB71
:100A280003F0884208D91CEB010103F1FF3802D218
:100A3800884200F2CB804346091AA4B2B1FBF7F012
:100A480007FB101144EA01440EFB00FEA64508D935
:100A58001CEB040400F1FF3102D2A64500F2BB8072
:100A68000846A4EB0E0440EA03409CE7C6F12007C1
:100A7800B34022FA07FC4CEA030C20FA07F401FA07
:100A880006F31C43F9404FEA1C4900FA06F3B1FB90
:100A9800F9F8200C1FFA8CFE09FB181140EA0141F5
:100AA80008FB0EF0884202FA06F20BD91CEB010192
:100AB80008F1FF3A80F08880884240F28580A8F1EA
:100AC80002086144091AA4B2B1FBF9F009FB10113C
:100AD80044EA014100FB0EFE8E4508D91CEB0101DA
:100AE80000F1FF346CD28E456AD90238614440EA7D
:100AF8000840A0FB0294A1EB0E01A142C846A646FD
:100B080056D353D05DB1B3EB080261EB0E0101FA85
:100B180007F722FA06F3F1401F43C5E900710026E2
:100B28003146BDE8F087C2F12003D8400CFA02FC38
:100B380021FA03F3914001434FEA1C471FFA8CFE48
:100B4800B3FBF7F007FB10360B0C43EA064300FB38
:100B58000EF69E4204FA02F408D91CEB030300F1D6
:100B6800FF382FD29E422DD9023863449B1B89B28D
:100B7800B3FBF7F607FB163341EA034106FB0EF316
:100B88008B4208D91CEB010106F1FF3816D28B42C3
:100B980014D9023E6144C91A46EA004638E72E468F
:100BA800284605E70646E3E61846F8E64B45A9D287
:100BB800B9EB020864EB0C0E0138A3E74646EAE7F6
:100BC800204694E74046D1E7D0467BE7023B6144A4
:100BD80032E7304609E76444023842E7704700BF0D
:100BE80080B582B000AF0023FB7114E0FB790122CD
:100BF8001946002000F094F9FB79002219460020DC
:100C080000F0F6F9FB7901221946002000F052FAAB
:100C1800FB790133FB71FB79072BE7D900BF00BFD4
:100C28000837BD4680BD000080B582B000AF0346DE
:100C3800FB71FFF7D5FFFB79032B37D801A252F8D8
:100C480023F000BF5D0C0008730C0008890C000835
:100C58009F0C000801220021002000F093FA0022D6
:100C68000121002000F08EFA21E00122022100205B
:100C780000F088FA00220321002000F083FA16E031
:100C880001220421002000F07DFA00220521002025
:100C980000F078FA0BE001220621002000F072FA39
:100CA80000220721002000F06DFA00E000BF00BF1D
:100CB8000837BD4680BD00BF80B582B000AF03468F
:100CC800FB71FFF78DFFFB79032B37D801A252F890
:100CD80023F000BFED0C0008030D0008190D0008F3
:100CE8002F0D000800220021002000F04BFA0122FD
:100CF8000121002000F046FA21E000220221002014
:100D080000F040FA01220321002000F03BFA16E02F
:100D180000220421002000F035FA012205210020DC
:100D280000F030FA0BE000220621002000F02AFA39
:100D380001220721002000F025FA00E000BF00BFD3
:100D48000837BD4680BD00BF80B582B000AF0346FE
:100D5800FB71FFF745FFFB79032B37D801A252F847
:100D680023F000BF7D0D0008930D0008A90D0008B1
:100D7800BF0D000800220021002000F003FA002225
:100D88000121002000F0FEF921E0002202210020CC
:100D980000F0F8F900220321002000F0F3F916E032
:100DA80000220421002000F0EDF900220521002096
:100DB80000F0E8F90BE000220621002000F0E2F93B
:100DC80000220721002000F0DDF900E000BF00BF8D
:100DD8000837BD4680BD00BF80B400AF0F4B1B680D
:100DE8000E4A43F00103136000BF0C4B1B685B08FD
:100DF80003F00103002BF8D0084B9B68074A23F047
:100E080003039360054B1B68044A43F48023136073
:100E180000BFBD465DF8047B704700BF0038024044
:100E280080B483B000AF03460A46FB711346BB711A
:100E3800FB79072B6AD801A252F823F0650E000847
:100E48007B0E0008910E0008A70E0008BD0E0008D2
:100E5800D30E0008E90E0008FF0E00082F4B1B6B8D
:100E6800BA79012101FA02F211462C4A0B431363A5
:100E78004DE02A4B5B6BBA79012101FA02F2114667
:100E8800264A0B43536342E0244B1B6CBA79012179
:100E980001FA02F21146214A0B43136437E01F4B53
:100EA8005B6CBA79012101FA02F211461B4A0B4325
:100EB80053642CE0194B1B6DBA79012101FA02F237
:100EC8001146164A0B43136521E0144B5B6DBA7942
:100ED800012101FA02F21146104A0B43536516E04C
:100EE8000E4B1B6EBA79012101FA02F211460B4A28
:100EF8000B4313660BE0094B5B6EBA79012101FACB
:100F080002F21146054A0B43536600E000BF00BFDA
:100F18000C37BD465DF8047B704700BF00380240BF
:100F280080B483B000AF0346FB710B46BB71134618
:100F38007B71FB79022B36D0022B4CDC002B02D0C4
:100F4800012B18D047E0274B1B68BA7952000321C0
:100F580001FA02F2D2431146224A0B401360214B98
:100F68001B687979BA79520001FA02F211461D4AD2
:100F78000B43136030E01C4B1B68BA795200032105
:100F880001FA02F2D2431146174A0B401360164B7E
:100F98001B687979BA79520001FA02F21146124AAD
:100FA8000B43136018E0114B1B68BA7952000321F8
:100FB80001FA02F2D24311460C4A0B4013600B4B64
:100FC8001B687979BA79520001FA02F21146074A88
:100FD8000B43136000E000BF00BF0C37BD465DF84F
:100FE800047B7047000002400004024000080240F1
:100FF80080B483B000AF0346FB710B46BB71134648
:101008007B71FB79022B32D0022B46DC002B02D0FD
:10101800012B16D041E0244B5B68BA79012101FA13
:1010280002F2D2431146204A0B4053601E4B5B68C4
:101038007979BA7901FA02F211461B4A0B435360D7
:101048002CE01A4B5B68BA79012101FA02F2D2430B
:101058001146164A0B405360144B5B687979BA798C
:1010680001FA02F21146114A0B43536016E0104B85
:101078005B68BA79012101FA02F2D24311460C4A9F
:101088000B4053600A4B5B687979BA7901FA02F22E
:101098001146074A0B43536000E000BF00BF0C37FE
:1010A800BD465DF8047B7047000002400004024022
:1010B8000008024080B483B000AF0346FB710B46C2
:1010C800BB7113467B71FB79022B36D0022B4CDCAB
:1010D800002B02D0012B18D047E0274B9B68BA7928
:1010E8005200032101FA02F2D2431146224A0B4070
:1010F8009360214B9B687979BA79520001FA02F220
:1011080011461D4A0B43936030E01C4B9B68BA792B
:101118005200032101FA02F2D2431146174A0B404A
:101128009360164B9B687979BA79520001FA02F2FA
:101138001146124A0B43936018E0114B9B68BA7929
:101148005200032101FA02F2D24311460C4A0B4025
:1011580093600B4B9B687979BA79520001FA02F2D5
:101168001146074A0B43936000E000BF00BF0C37ED
:10117800BD465DF8047B7047000002400004024051
:101188000008024080B483B000AF0346FB710B46F1
:10119800BB7113467B71FB79022B32D0022B46DCE4
:1011A800002B02D0012B16D041E0244B5B69BA79A1
:1011B800012101FA02F2D2431146204A0B40536141
:1011C8001E4B5B697979BA7901FA02F211461B4A1A
:1011D8000B4353612CE01A4B5B69BA79012101FA80
:1011E80002F2D2431146164A0B405361144B5B6915
:1011F8007979BA7901FA02F21146114A0B4353611F
:1012080016E0104B5B69BA79012101FA02F2D24368
:1012180011460C4A0B4053610A4B5B697979BA79DC
:1012280001FA02F21146074A0B43536100E000BF7E
:1012380000BF0C37BD465DF8047B704700000240D4
:10124800000402400008024080B485B000AF0346A5
:10125800FB710B46BB7113467B71BB79DB08FB73D3
:10126800BB7903F00703BB73FB79022B4ED0022B2B
:1012780070DC002B02D0012B24D06BE0384AFB7BBA
:10128800083352F82320BB7B9B000F2101FA03F39C
:10129800DB4318463249FB7B0240083341F82320E0
:1012A8002F4AFB7B083352F823207979BB7B9B00BC
:1012B80001FA03F318462A49FB7B0243083341F835
:1012C800232047E0274AFB7B083352F82320BB7BC7
:1012D8009B000F2101FA03F3DB4318462149FB7BEE
:1012E8000240083341F823201E4AFB7B083352F89A
:1012F80023207979BB7B9B0001FA03F3184619492F
:10130800FB7B0243083341F8232023E0164AFB7B8A
:10131800083352F82320BB7B9B000F2101FA03F30B
:10132800DB4318461049FB7B0240083341F8232071
:101338000D4AFB7B083352F823207979BB7B9B004D
:1013480001FA03F318460849FB7B0243083341F8C6
:10135800232000BF00BF1437BD465DF8047B7047EB
:1013680000000240000402400008024080B400AFC0
:10137800124B0F229A62114B1B68104A43F0040368
:1013880013600E4B5B690D4A23F0010353610B4B4D
:101398001B680A4A23F008031360084B1B68074AB6
:1013A80043F001031360054B1B68044A43F08003B4
:1013B800136000BFBD465DF8047B70470000014024
:1013C80090B583B000AF0446084611461A46234636
:1013D800FB710346BB710B46BB8013467B80FFF74E
:1013E800C5FFFB79032B6BD801A252F823F000BF8D
:1013F8000914000839140008691400089914000831
:10140800394B9B69384A43F008039361364B9B6913
:10141800BA7912011146344A0B439361324B1B6A65
:10142800314A43F0010313622F4A7B88536347E034
:101438002D4B9B692C4A43F4006393612A4B9B69AB
:10144800BA7912031146284A0B439361264B1B6A4B
:10145800254A43F010031362234A7B8893632FE0E5
:10146800214BDB69204A43F00803D3611E4BDB693B
:10147800BA79120111461C4A0B43D3611A4B1B6AF5
:10148800194A43F480731362174A7B88D36317E0C1
:10149800154BDB69144A43F40063D361124BDB69D3
:1014A800BA7912031146104A0B43D3610E4B1B6ADB
:1014B8000D4A43F4805313620B4A7B88136400BFC0
:1014C800BB885A1E084BDA62074B5B6C064A43F42A
:1014D80000435364044B1B68034A43F00103136041
:1014E80000BF0C37BD4690BD0000014080B500AF7D
:1014F800054B1B689847054B1B69044A23F00103F9
:10150800136100BF80BD00BF1C0000200000014027
:1015180080B586B000AF0346FB801B4B7B614FF064
:1015280000033B614FF00003FB60184BBB60FB8876
:1015380007EE903AB8EE677AD7ED057A67EE276A34
:1015480097ED027AC6EE877AC7ED037AF868FFF757
:10155800CDF80BA3D3E90023FEF73AFE02460B466B
:1015680010461946FFF71AF903463B613B6907EE37
:10157800903AB0EE670A1837BD4680BDAFF30080D9
:101588004E36D964934D1E4000404E4500F07F45CD
:1015980080B483B000AF03460A46FB711346BB71A3
:1015A800124B5B68114A23F0407353600F4B5B6822
:1015B800FA79120611460D4A0B4353600B4B1B6D0B
:1015C8000A4A23F003031365084B1A6DBB790749D0
:1015D80013430B65054B9B68044A43F00103936072
:1015E80000BF0C37BD465DF8047B70470020014002
:1015F80080B582B000AF0346FB71FB790321184622
:1016080000F01AF8034BDB6B9BB218460837BD464F
:1016180080BD00BF0020014080B400AF054B9B682F
:10162800044A43F48003936000BFBD465DF8047B21
:10163800704700BF0020014080B483B000AF03466C
:101648000A46FB711346BB710F4B996BBA79134667
:101658009B0013441F2202FA03F3DB430A4A0B40A0
:101668009363094B996BF879BA7913469B00134435
:1016780000FA03F3044A0B43936300BF0C37BD46DB
:101688005DF8047B704700BF0020014080B483B040
:1016980000AF0346FB71FB79002B02D0012B07D06A
:1016A8000DE00A4B5B68094A43F02003536006E0EB
:1016B800064B5B68054A43F08003536000BF00BFD8
:1016C8000C37BD465DF8047B704700BF0020014021
:1016D80080B483B000AF78600B46FB70FB78002BBA
:1016E80002D0012B04D007E0064A7B68136003E0B0
:1016F800044A7B68536000BF00BF0C37BD465DF8E5
:10170800047B70472000002080B500AF114B1B6898
:101718005B0803F00103002B09D00F4B1B689847A7
:101728000C4B1B680B4A23F0020313600FE0094BB4
:101738001B689B0803F00103002B08D0064B5B686D
:101748009847044B1B68034A23F00403136000BF47
:1017580080BD00BF002001402000002080B500AF00
:10176800022208210020FFF7DBFB022209210020CA
:10177800FFF7D6FB02220A210020FFF7D1FB022245
:1017880001210120FFF7CCFB012208210020FFF7EF
:101798005BFD012209210020FFF756FD01220A21E5
:1017A8000020FFF751FD022201210120FFF74CFD27
:1017B80000BF80BD80B500AF0020FFF77DFA012093
:1017C800FFF77AFA0220FFF777FA0320FFF774FA97
:1017D8004FF233334FF6DC7206210020FFF7F0FD9D
:1017E8004FF233334FF6DC7206210120FFF7E8FD94
:1017F8004FF233334FF6DC7206210220FFF7E0FD8B
:101808004FF233334FF6DC720621032000F080F9E3
:1018180000BF80BD80B500AF0020FFF705FA0120AA
:10182800FFF702FA0220FFF7FFF90320FFF7FCF9A0
:101838004FF233334FF6DC7206210020FFF7C0FD6C
:101848004FF233334FF6DC7206210120FFF7B8FD63
:101858004FF233334FF6DC7206210220FFF7B0FD5A
:101868004FF233334FF6DC720621032000F050F9B3
:1018780000BF80BD80B500AF0020FFF71DFA012032
:10188800FFF762FA0220FFF717FA0320FFF75CFA66
:101898004FF233334FF6DC7206210020FFF790FD3C
:1018A8004FF233334FF6DC7206210120FFF788FD33
:1018B8004FF233334FF6DC7206210220FFF780FD2A
:1018C8004FF233334FF6DC720621032000F020F983
:1018D80000BF80BD80B500AF0120FFF7EDF9002003
:1018E800FFF732FA0320FFF7E7F90220FFF72CFA97
:1018F8004FF233334FF6DC7206210020FFF760FD0C
:101908004FF233334FF6DC7206210120FFF758FD02
:101918004FF233334FF6DC7206210220FFF750FDF9
:101928004FF233334FF6DC720621032000F0F0F853
:1019380000BF80BD80B500AF0020FFF705FA012089
:10194800FFF702FA0220FFF7FFF90320FFF7FCF97F
:1019580000BF80BD80B500AF43F233334FF6DC7271
:1019680006210020FFF72CFD43F233334FF6DC72DB
:1019780006210120FFF724FD43F233334FF6DC72D2
:1019880006210220FFF71CFD43F233334FF6DC72C9
:101998000621032000F0BCF800BF80BD80B500AF71
:1019A80046F266634FF6DC7206210020FFF708FD59
:1019B80046F266634FF6DC7206210120FFF700FD50
:1019C80046F266634FF6DC7206210220FFF7F8FC48
:1019D80046F266634FF6DC720621032000F098F8A1
:1019E80000BF80BD80B500AF49F699134FF6DC7291
:1019F80006210020FFF7E4FC49F699134FF6DC7244
:101A080006210120FFF7DCFC49F699134FF6DC723A
:101A180006210220FFF7D4FC49F699134FF6DC7231
:101A28000621032000F074F800BF80BD80B500AF28
:101A38004CF6CC434FF6DC7206210020FFF7C0FCC1
:101A48004CF6CC434FF6DC7206210120FFF7B8FCB8
:101A58004CF6CC434FF6DC7206210220FFF7B0FCAF
:101A68004CF6CC434FF6DC720621032000F050F808
:101A780000BF80BD80B500AF4FF233334FF6DC7244
:101A880006210020FFF79CFC4FF233334FF6DC723F
:101A980006210120FFF794FC4FF233334FF6DC7236
:101AA80006210220FFF78CFC4FF233334FF6DC722D
:101AB8000621032000F02CF800BF80BD80B400AFE1
:101AC800124B0F229A62114B1B68104A43F0040311
:101AD80013600E4B5B690D4A23F0010353610B4BF6
:101AE8001B680A4A23F008031360084B1B68074A5F
:101AF80023F001031360054B1B68044A43F080037D
:101B0800136000BFBD465DF8047B704700040040C9
:101B180090B583B000AF0446084611461A462346DE
:101B2800FB710346BB710B46BB8013467B80FFF7F6
:101B3800C5FFFB79032B6BD801A252F823F000BF35
:101B4800591B0008891B0008B91B0008E91B00087D
:101B5800394B9B69384A43F008039361364B9B69BC
:101B6800BA7912011146344A0B439361324B1B6A0E
:101B7800314A43F0010313622F4A7B88536347E0DD
:101B88002D4B9B692C4A43F4006393612A4B9B6954
:101B9800BA7912031146284A0B439361264B1B6AF4
:101BA800254A43F010031362234A7B8893632FE08E
:101BB800214BDB69204A43F00803D3611E4BDB69E4
:101BC800BA79120111461C4A0B43D3611A4B1B6A9E
:101BD800194A43F480731362174A7B88D36317E06A
:101BE800154BDB69144A43F40063D361124BDB697C
:101BF800BA7912031146104A0B43D3610E4B1B6A84
:101C08000D4A43F4805313620B4A7B88136400BF68
:101C1800BB885A1E084BDA62084B5B6C074A43F4D0
:101C280000435364044B1B68034A43F001031360E9
:101C380000BF0C37BD4690BD0004004000000140C5
:101C480080B500AF064B1B6898474FF080431B696F
:101C58004FF0804223F00103136100BF80BD00BF35
:101C68002800002080B500AF054B1B689847054B3E
:101C78001B69044A23F00103136100BF80BD00BF44
:101C88002C0000200004004080B500AF054B1B6805
:101C98009847054B1B69044A23F00103136100BFF1
:101CA80080BD00BF300000200008004080B500AFB4
:101CB800054B1B689847054B1B69044A23F0010331
:101CC800136100BF80BD00BF34000020000C00403D
:101CD80080B500AF054B1B689847054B1B69044A44
:101CE80023F00103136100BF80BD00BF380000204E
:101CF8000040014080B500AF054B1B689847054B75
:101D08001B69044A23F00103136100BF80BD00BFB3
:101D18003C0000200048014080B500AFFFF75CF8A8
:101D280000210020FFF77CF801210020FFF778F858
:101D380004210320FFF774F800210320FFF770F84F
:101D480005210320FFF76CF808210320FFF768F846
:101D580001210220FFF764F8FFF700FD02220721A6
:101D68000120FFF7DDF8072207210120FFF76CFAB1
:101D780000F0C4F9252000F03DF9012000F03EFAFA
:101D88000121214800F066FA00210020FFF700FC3D
:101D9800122000F02FF9032200210120FFF7C0F8DC
:101DA80001211A48FFF794FC0120FFF76FFC02227B
:101DB8000B210020FFF7B4F802220C210020FFF7C6
:101DC800AFF808220B210020FFF73EFA08220C2169
:101DD8000020FFF739FA00F0C1F9472000F00AF9AE
:101DE800012000F0EBF900F029FA03461A46084BE7
:101DF8001A700820FFF7FCFB03461A46054B1A80A9
:101E0800FFF70AFCEFE700BF211E0008B91F000812
:101E1800400000204200002080B582B000AF634B34
:101E28001B78FB71FB79313B492B00F2BA8001A288
:101E380052F823F08D1F0008931F0008991F00080F
:101E48009F1F0008A51F0008AB1F0008AB1F000854
:101E5800AB1F0008AB1F0008AB1F0008AB1F000832
:101E6800AB1F0008AB1F0008AB1F0008AB1F000822
:101E7800AB1F0008AB1F0008AB1F0008AB1F000812
:101E8800AB1F0008AB1F0008AB1F0008AB1F000802
:101E9800AB1F0008AB1F0008AB1F0008AB1F0008F2
:101EA800AB1F0008AB1F0008AB1F0008AB1F0008E2
:101EB800AB1F0008AB1F0008AB1F0008AB1F0008D2
:101EC800AB1F0008AB1F0008AB1F0008AB1F0008C2
:101ED800AB1F0008AB1F0008AB1F0008AB1F0008B2
:101EE800AB1F0008AB1F0008AB1F0008AB1F0008A2
:101EF800AB1F0008811F0008AB1F0008AB1F0008BC
:101F08007B1F0008AB1F0008AB1F0008AB1F0008B1
:101F1800AB1F0008AB1F0008AB1F0008AB1F000871
:101F2800AB1F0008AB1F0008AB1F0008AB1F000861
:101F3800AB1F0008AB1F0008AB1F0008751F000887
:101F4800AB1F0008AB1F0008AB1F0008651F000887
:101F5800AB1F0008AB1F0008871F0008FFF72AFC0B
:101F6800012203210020FFF70DF91BE0FFF752FCC7
:101F780018E0FFF77FFC15E0FFF7ACFC12E0FFF775
:101F8800D9FC0FE0FFF7E6FC0CE0FFF707FD09E0DE
:101F9800FFF728FD06E0FFF749FD03E0FFF76AFDBC
:101FA80000E000BF00BF0837BD4680BD40000020EC
:101FB800B0B582B000AF00237B600D4B1B8818467C
:101FC800FFF7A6FAF0EE407AFCEEE77A17EE903AC1
:101FD8007B60074B1B889BB200221C461546204697
:101FE800294600F063F900BF0837BD46B0BD00BF01
:101FF8004200002090B484B000AF0346FB71012377
:10200800FB73FB79542B13D80D4AFB795B09D8B2C3
:10201800034652F82330FA7902F01F02012101FA2F
:1020280002F21446064A0146234342F8213001E0F1
:102038000223FB73FB7B18461037BD4690BC7047E4
:1020480000E100E080B400AFFEE780B400AFFEE737
:1020580080B400AFFEE780B400AFFEE780B400AF05
:10206800FEE780B400AF00BFBD465DF8047B704753
:1020780080B400AF00BFBD465DF8047B704780B4F4
:1020880000AF00BFBD465DF8047B704780B400AF69
:10209800064BD3F88830054A43F47003C2F88830F9
:1020A80000BFBD465DF8047B704700BF00ED00E04F
:1020B80080B483B000AF0023FB71074B1B681B0C77
:1020C800DBB203F00103FB71FB7918460C37BD4600
:1020D8005DF8047B704700BF10E000E080B500AFFA
:1020E800054B1B68002B04D0034B1B689847FFF770
:1020F800DFFF00BF80BD00BF4400002080B400AFF8
:10210800154AD3686FF3CF33D360134B9B68124AD9
:1021180043F4D06343F0030393600F4AD3686FF32B
:102128000C33D3600C4AD3686FF38A23D3600A4A0E
:10213800D36843F00803D360074AD36843F0040325
:10214800D360054AD36843F40053D36000BFBD464B
:102158005DF8047B704700BF0010014080B400AFF9
:10216800154AD3686FF3CF33D360134B9B68124A79
:1021780043F4D06343F0030393600F4AD3686FF3CB
:102188000C33D3600C4AD3686FF38A23D3600A4AAE
:10219800D36843F00803D360074AD36843F00403C5
:1021A800D360054AD36843F40053D36000BFBD46EB
:1021B8005DF8047B704700BF0014014080B483B011
:1021C80000AF0346FB71FB79002B02D0012B06D030
:1021D8000BE0094AD3686FF3C713D36005E0064ADA
:1021E800D36843F08003D36000BF00BF0C37BD46FF
:1021F8005DF8047B704700BF0014014080B483B0D1
:1022080000AF0346FB71FB79002B02D0012B06D0EF
:102218000BE0094AD3686FF34513D36005E0064A1B
:10222800D36843F02003D36000BF00BF0C37BD461E
:102238005DF8047B704700BF0010014080B400AF18
:10224800034B5B68DBB21846BD465DF8047B7047FC
:102258000010014080B483B000AF78600B46FB707B
:10226800FB78002B02D0012B04D007E0064A7B68DC
:10227800136003E0044A7B68536000BF00BF0C375B
:10228800BD465DF8047B70474800002080B483B0E9
:1022980000AF0346FB71044AFB79137000BF0C378B
:1022A800BD465DF8047B7047500000202DE9B04F13
:1022B80086B000AFC7E902014FF001024FF00003FA
:1022C800C7E90423D7E90223134302D13020FFF7DB
:1022D800DDFFD7E90223002B41DA3020FFF7D6FFD4
:1022E800D7E902230021D2F1000861EB0309C7E90D
:1022F800028934E0D7E9048942464B464FF0000092
:102308004FF00001990041EA9271900002460B4695
:1023180012EB080443EB090523193B6045EB050361
:102328007B60D7E90045A046A946D7E902014FF0EE
:102338000A024FF00003FEF781FA18EB020A49EB94
:10234800030BC7E904ABD7E902014FF00A024FF0CB
:102358000003FEF773FA02460B46C7E90223D7E9E2
:1023680002231343C6D119E0D7E904014FF00A024A
:102378004FF00003FEF7B2FAD3B23033DBB218469F
:10238800FFF784FFD7E904014FF00A024FF000037A
:10239800FEF7A4FA02460B46C7E90423D7E904234B
:1023A800511E0B43E0D100BF00BF1837BD46BDE842
:1023B800B08F000080B582B000AF0023FB71084BDE
:1023C8001B685B0903F00103012B05D1054B5B6812
:1023D8009847034B5B68FB7100BF0837BD4680BD5B
:1023E800001001404800002080B483B000AF0023F3
:1023F800FB71084B1B68DB0903F00103012B03D1B8
:10240800054B1A78034B5A6000BF0C37BD465DF880
:10241800047B70470014014050000020DFF834D0DE
:102428000D480E490E4A002302E0D458C450043324
:10243800C4188C42F9D30B4A0B4C002301E01360FB
:102448000432A242FBD3FFF721FE00F011F8FFF798
:1024580063FC7047000001200000002000000020FD
:10246800E82400080000002054000020FEE70000D7
:1024780070B50D4D0D4C641BA4100026A64209D161
:102488000B4D0C4C00F018F8641BA4100026A64253
:1024980005D170BD55F8043B98470136EEE755F86D
:1024A800043B98470136F2E7E0240008E0240008DE
:1024B800E0240008E4240008F8B500BFF8BC08BC14
:1024C8009E467047F8B500BFF8BC08BC9E467047EA
:0824D8003CE4FF7F010000005D
:0424E000BD01000832
:0424E4009901000852
:0400000508002425A6
:00000001FF
